:100000007581D00200061202FB1200531200661224
:0E00100002211200C01201CD12019580F222D1
:10001E00E5207003F4F52054B8A2D0E52033F52086
:10002E0022E5217009E5227005F4F521F52254D060
:10003E00A2D0E52130E301B333F521F5F0E522330B
:10004E00F522C5F022790978A0760108D9FB790945
:10005E0078B8760108D9FB22785076097851765413
:10006E00785276307855760212001E78A0F6087611
:10007E000108760112001E78B8F60876020876019D
:10008E00785376007854760122C0E0E583C0E0E52F
:10009E0082C0E07D007B08E0FCED234CFD75F05442
:1000AE00120111DBF28DF0D0E0F582D0E0F583D0B5
:1000BE00E022C0D0C0E0D2D4D2D31203949000007C
:1000CE007E067500007500007F5412009785F000C3
:1000DE00E5008500F01201228500F01201370500BF
:1000EE0075F001120111DFE2050075F0FC1201112D
:1000FE0075F0FC12011175F054120111DEC7D0E03B
:10010E00D0D022C0E0E58225F0F582E5833400F5FB
:10011E0083D0E022C0E0C0D0D2D4C2D3F50085F0A7
:10012E0000120379D0D0D0E022C0E0C0D0D2D4C229
:10013E00D385F000120335D0D0D0E022C258E55559
:10014E00B50902D258E5A1B45401D35008E5B9B4AB
:10015E003001D34002D258755902E559B5550050B9
:10016E001EE55924A0F886F0E5A1B5F00EE5592458
:10017E00B8F987F0E5B9B5F002D258055980DBA27F
:10018E0058E4337E00FF2212014A7855E6FBEBB4A9
:10019E000101D34017EB249FF8EB24A0F9E6F7EB0F
:1001AE0024B7F8EB24B8F9E6F71B80E27853E6782B
:1001BE00A22678A1F67854E678BA2678B9F62230D7
:1001CE009211E4F554E553640160057553FF800305
:1001DE00755301309313E4F554B4FF05E553F46001
:1001EE000575530180037553FF209113E4F554B444
:1001FE00FF05E554F4600075540180037554FF202B
:10020E009010E4F553E554640160047554FF2275B3
:10021E005401227D00EDB4300050297E00EEB4541E
:10022E0000501EED75F054A42400F582E5F0340064
:10023E00F583EE2582F582E43583F583E4F00E80B6
:10024E00DC0D80D17C0174092401F8E433AB00F598
:10025E00F0B2F77480B5F004ECB50300400302026F
:10026E00FAEC24A0F8E625E0F556EC24B8F8E625DD
:10027E00E0FBF557E55675F054A42400F582E5F041
:10028E003400F583EB2582F582E43583F583740122
:10029E00F0E55675F054A42454F582E5F03400F5DB
:1002AE0083EB2582F582E43583F5837401F0E55600
:1002BE0075F054A42401F582E5F03400F583EB25A6
:1002CE0082F582E43583F5837401F0E55675F054BA
:1002DE00A42455F582E5F03400F583EB2582F582F2
:1002EE00E43583F5837401F00C02025422C0E0C0A1
:1002FE00D0D2D4C2D3D295D2961203B278211203A1
:10030E004D78C212034D781112034D782012034D11
:10031E00780912034D120394780812034D780C12CB
:10032E00034DD0D0D0E022120363227F08E8C2B181
:10033E0020E704C2B08002D2B0D2B123DFF022C0D7
:10034E00E0C0D0D2D4C2D3C297C296120339D2968D
:10035E00D0D0D0E022C0E0C0D0D2D4C2D3D297C287
:10036E0096120339D296D0D0D0E022C0E0C0D0D2BF
:10037E00D4C2D3EA4440F812034DE94480F8120384
:10038E004DD0D0D0E022C0E0C0D0D2D4C2D37900BC
:10039E007A007B067A547800120363DAF9DBF5D023
:1003AE00D0D0E0227D0A7EFF7FFFDFFEDEFADDF693
:0103BE00221C
:00000001FF
