:100000007581D002000612037012005312006612AE
:0E00100002441202CA1201F012016880F222AC
:10001E00E5207003F4F52054B8A2D0E52033F52086
:10002E0022E5217009E5227005F4F521F52254D060
:10003E00A2D0E52130E301B333F521F5F0E522330B
:10004E00F522C5F022790978A0760008D9FB790946
:10005E0078B8760008D9FB22785076097851765414
:10006E00785276307855760212001E78A0F6087611
:10007E000108760112001E78B8F60876020876019D
:10008E00785376007854760122C0D0120409750098
:10009E00047500011203EE7C0E7500FF1203AADC3C
:1000AE00F87B057500001203AADBF87C057500FFCE
:1000BE001203AADCF87C057500F01203AADCF87CAA
:1000CE00057500FF1203AADCF87B0575000012030C
:1000DE00AADBF87C057500FF1203AADCF87C057517
:1000EE0000CF1203AADCF87C0575000F1203AADC00
:1000FE00F87500087500021203EE7C057500FF12FC
:10010E0003AADCF87B0A7500001203AADBF87C0553
:10011E007500FF1203AADCF87C0575000F1203AA06
:10012E00DCF87C057500FF1203AADCF87B05750070
:10013E00001203AADBF87C057500FF1203AADCF897
:10014E007C057500F31203AADCF87C057500F0122D
:10015E0003AADCF8020162D0D0221201A5500312CC
:10016E0000977855E6FBEBB40101D34017EB249FC3
:10017E00F8EB24A0F9E6F7EB24B7F8EB24B8F9E690
:10018E00F71B80E27853E678A22678A1F67854E63B
:10019E0078BA2678B9F622C3C258E555B40902D208
:1001AE005878A1E6B45401D3500978B9E6B43001B9
:1001BE00D34002D258755902E559B555005020E585
:1001CE005924A0F886F078A1E6B5F00FE55924B8C9
:1001DE00F987F078B9E6B5F002D258055980D9A260
:1001EE005822309211E4F554E553640160057553BD
:1001FE00FF8003755301309313E4F554B4FF05E506
:10020E0053F4600575530180037553FF209113E479
:10021E00F554B4FF05E554F4600075540180037580
:10022E0054FF209010E4F553E554640160047554B6
:10023E00FF22755401227D00EDB4300050297E005E
:10024E00EEB45400501EED75F054A42400F582E572
:10025E00F03400F583EE2582F582E43583F583E4F0
:10026E00F00E80DC0D80D1755900E559B555005062
:10027E004AE55924A0F8E625E0F556E55924B8F8E4
:10028E00E625E0F557756000755800E55825577559
:10029E00F054A4F58285F083E56025562582F5821B
:1002AE00E5833400F5837401F00558E558B402DB9C
:1002BE000560E560B402D1055980AF22C0D0C0E020
:1002CE00D2D4D2D3120409900000740075F000123B
:1002DE0003487E067F5412030E12035DA3DFF775EB
:1002EE00F0FC12033775F0FC12033775F05412034D
:1002FE0037DEE1740275F000120348D0E0D0D02250
:10030E00C0E0E583C0E0E582C0E07D007B08E0FC54
:10031E00ED4C03FD75F054120337DBF28DF0D0E097
:10032E00F582D0E0F583D0E022C0E0E58225F0F53D
:10033E0082E5833400F583D0E022C0E0C0D0D2D471
:10034E00C2D3F50085F0001203EED0D0D0E022C06B
:10035E00E0C0D0D2D4C2D385F0001203AAD0D0D040
:10036E00E022C0E0C0D0D2D4C2D3D295D29612042D
:10037E002778211203C278C21203C278111203C267
:10038E0078201203C278091203C2120409780812E7
:10039E0003C2780C1203C2D0D0D0E0221203D822AE
:1003AE007F08E8C2B120E704C2B08002D2B0D2B159
:1003BE0023DFF022C0E0C0D0D2D4C2D3C297C296FF
:1003CE001203AED296D0D0D0E022C0E0C0D0D2D4AC
:1003DE00C2D3D297C2961203AED296D0D0D0E0221C
:1003EE00C0E0C0D0D2D4C2D3EA4440F81203C2E96E
:1003FE004480F81203C2D0D0D0E022C0E0C0D0D2E8
:0D040E00D4C2D379007A007B067A547800BE
:10041B001203D8DAF9DBF5D0D0D0E0227D0A7EFFCB
:09042B007FFFDFFEDEFADDF622A0
:00000001FF
