:100000007581D00200061202FC1200531200661223
:0E001000016F12027212011B12009780F22281
:10001E00E5207003F4F52054B8A2D0E52033F52086
:10002E0022E5217009E5227005F4F521F52254D060
:10003E00A2D0E52130E301B333F521F5F0E522330B
:10004E00F522C5F022790278A0760108D9FB790253
:10005E0078B8760108D9FB2278507602785176541A
:10006E00785276307855760212001E78A0F6087611
:10007E000108760112001E78B8F60876020876019D
:10008E007853760078547601221200D45003120071
:10009E00067855E6FBEBB40101D34017EB249FF82D
:1000AE00EB24A0F9E6F7EB24B7F8EB24B8F9E6F762
:1000BE001B80E27853E678A22678A1F67854E6788B
:1000CE00BA2678B9F622C3C258E555B40202D25800
:1000DE00E5A1B45401D35008E5B9B43001D34002C0
:1000EE00D258755902E559B55500501EE55924A050
:1000FE00F886F0E5A1B5F00EE55924B8F987F0E5DC
:10010E00B9B5F002D258055980DBA25822309211AF
:10011E00E4F554E553640160057553FF8003755390
:10012E0001309313E4F554B4FF05E553F4600575FF
:10013E00530180037553FF209113E4F554B4FF056A
:10014E00E554F4600075540180037554FF2090103F
:10015E00E4F553E554640160047554FF22755401AF
:10016E00227D00EDB4300050297E00EEB4540050D4
:10017E001EED75F054A42400F582E5F03400F583ED
:10018E00EE2582F582E43583F583E4F00E80DC0DF6
:10019E0080D17C0174022401F8E433AB00F5F0B297
:1001AE00F77480B5F004ECB503004003020248EC8E
:1001BE0024A0F8E625E0F556EC24B8F8E625E0FB99
:1001CE00F557E55675F054A42400F582E5F0340099
:1001DE00F583EB2582F582E43583F5837401F0E532
:1001EE005675F054A42454F582E5F03400F583EBF3
:1001FE002582F582E43583F5837401F0E55675F0BA
:10020E0054A42401F582E5F03400F583EB2582F544
:10021E0082E43583F5837401F0E55675F054A42419
:10022E0055F582E5F03400F583EB2582F582E43551
:10023E0083F5837401F00C0201A222C0E0E583C0B5
:10024E00E0E582C0E07D007B08E0FCED234CFD750F
:10025E00F0541202C3DBF28DF0D0E0F582D0E0F55F
:10026E0083D0E022C0D0C0E0D2D4D2D31203959076
:10027E0000007E067500007500007F54120249854D
:10028E00F000E5008500F01202D48500F01202E9BC
:10029E00050075F0011202C3DFE2050075F0FC12D5
:1002AE0002C375F0FC1202C375F0541202C3DEC70E
:1002BE00D0E0D0D022C0E0E58225F0F582E583348F
:1002CE0000F583D0E022C0E0C0D0D2D4C2D3F50076
:1002DE0085F00012037AD0D0D0E022C0E0C0D0D298
:1002EE00D4C2D385F000120336D0D0D0E022C0E0C5
:1002FE00C0D0D2D4C2D3D295D2961203B3782112E3
:10030E00034E78C212034E781112034E7820120358
:10031E004E780912034E120395780812034E780C8C
:10032E0012034ED0D0D0E022120364227F08E8C21E
:10033E00B120E704C2B08002D2B0D2B123DFF022E6
:10034E00C0E0C0D0D2D4C2D3C297C29612033AD262
:10035E0096D0D0D0E022C0E0C0D0D2D4C2D3D297B3
:10036E00C29612033AD296D0D0D0E022C0E0C0D0CE
:10037E00D2D4C2D3EA4440F812034EE94480F812B4
:10038E00034ED0D0D0E022C0E0C0D0D2D4C2D379B8
:10039E00007A007B067A547800120364DAF9DBF5F2
:1003AE00D0D0D0E0227D0A7EFF7FFFDFFEDEFADDB9
:0203BE00F62225
:00000001FF
