:100000007581800200061205A4120071120084128C
:0E001000047B12050112042112031A80F22251
:10001E00E5207003F4F52054B8A2D0E52033F52086
:10002E0022E5217009E5227005F4F521F52254D060
:10003E00A2D0E52130E301B333F521F5F0E522330B
:10004E00F522C5F022F888F890F88090C8B888A8F4
:10005E00503820F838A848F8A8D808D881F8A8F859
:10006E003828F879207838760008D9FB792078502E
:10007E00760008D9FB22A820760078327602740327
:10008E0075F05484E5F07838F60876030876037434
:10009E000875F03084E5F07850F608760608760597
:1000AE00783076007831760122C0D0D2D4C2D3E532
:1000BE002875F006A475F00A84FAE5F0F9E52875BE
:1000CE00F00A84FFE5F029F975F00A842AFAE5F0C2
:1000DE00F9EF3400FFE52875F005A42A75F00A84BF
:1000EE00FBE5F0FAEF75F00A84FFE5F02AFA75F0F9
:1000FE000A842BFBE5F0FAEF3400FFE52875F002D9
:10010E00A42B75F00A84FCE5F0FBEF75F00A84FF72
:10011E00E5F02BFB75F00A842CFCE5F0FBEF3400C8
:10012E00FFE9C0E0EAC0E0EBC0E0ECC0E0D2D4C230
:10013E00D39000537B00D0E079207A3412062275DA
:10014E00F003A4FC93F81205DE0CEC93F81205DE16
:10015E000CEC93F81205DED0E079257A34120622E3
:10016E0075F003A4FC93F81205DE0CEC93F812055F
:10017E00DE0CEC93F81205DED0E0792A7A34120602
:10018E002275F003A4FC93F81205DE0CEC93F81222
:10019E0005DE0CEC93F81205DED0E0792F7A3412DE
:1001AE00062275F003A4FC93F81205DE0CEC93F80E
:1001BE001205DE0CEC93F81205DED0D022C0D0D2A0
:1001CE00D4C2D312063D791B7A0112062278FF1291
:1001DE0005DE78811205DE78811205DE7891120532
:1001EE00DE78911205DE78F11205DE78001205DE5A
:1001FE0078001205DE78FF1205DE78111205DE7822
:10020E00111205DE78111205DE78111205DE78FF67
:10021E001205DE78001205DE78001205DE78FF1278
:10022E0005DE78031205DE781C1205DE781C120539
:10023E00DE78031205DE78FF1205DE78001205DE89
:10024E0078001205DE78FF1205DE78911205DE7851
:10025E00911205DE78911205DE78811205DE788125
:10026E001205DE791B7A0312062278FF1205DE785C
:10027E00811205DE78811205DE78811205DE788125
:10028E001205DE78FF1205DE78001205DE78001208
:10029E0005DE78071205DE78381205DE78C0120505
:1002AE00DE78C01205DE78381205DE78071205DE1C
:1002BE0078001205DE78001205DE78FF1205DE7872
:1002CE00911205DE78911205DE78911205DE7881A5
:1002DE001205DE78811205DE78001205DE78001236
:1002EE0005DE78FF1205DE78091205DE7819120593
:1002FE00DE78291205DE78491205DE78861205DED3
:10030E001200B7120421020311D0D0221203D650CC
:10031E000B782876A0782876001201CB7800E5308D
:10032E0078380826FDAE388EF0B5F067E531785096
:10033E000826FFAE508EF0B5F0597832E6FBEBB4DE
:10034E000001D34017EB2437F8EB2438F9E6F7EB2E
:10035E00244FF8EB2450F9E6F71B80E27830E6786C
:10036E003A267839F67831E67852267851F678388A
:10037E00EDF67850EFF612001E75F01484E5F07865
:10038E0038F612001E75F01484E5F07850F67832C7
:10039E00E604F67832E6FBEBB40101D34017EB240A
:1003AE0037F8EB2438F9E6F7EB244FF8EB2450F945
:1003BE00E6F71B80E27830E6783A267839F678311F
:1003CE00E67852267851F622C3C235E532B42002C1
:1003DE00D2357839E6B45401D350097851E6B430A9
:1003EE0001D34002D235753602E536B532005020C3
:1003FE00E5362438F886F07839E6B5F00FE5362480
:0E040E0050F987F07851E6B5F002D235053688
:10041C0080D9A23522209211E4F531E530640160D7
:10042C00057530FF8003753001209313E4F531B46A
:10043C00FF05E530F4600575300180037530FF2051
:10044C009013E4F530B4FF05E531F4600575310126
:10045C0080037531FF209110E4F530E531640160C3
:10046C00047531FF22753101209403020006227DB0
:10047C0000EDB4300050297E00EEB45400501EED57
:10048C0075F054A42400F582E5F03400F583EE25D4
:10049C0082F582E43583F583E4F00E80DC0D80D1A7
:1004AC00753600E536B53200504AE5362438F8E6A4
:1004BC0025E0F533E5362450F8E625E0F5347537BC
:1004CC0000753500E535253475F054A4F58285F0BA
:1004DC0083E53725332582F582E5833400F5837473
:1004EC0001F00535E535B402DB0537E537B402D14B
:1004FC00053680AF22C0D0C0E0D2D4D2D312063D94
:10050C00900000740075F00012057F7E067F541277
:10051C000545120592A3DFF775F0FC12056E75F018
:10052C00FC12056E75F05412056EDEE1740275F066
:10053C000012057FD0E0D0D022C0E0E583C0E0E51A
:10054C0082C0E07D007B08E0FCED4C03FD75F054AF
:10055C0012056EDBF28DF0D0E0F582D0E0F583D0A1
:10056C00E022C0E0E58225F0F582E5833400F583D6
:10057C00D0E022C0E0C0D0D2D4C2D3F9AAF0120687
:10058C0022D0D0D0E022C0E0C0D0D2D4C2D3A8F0C8
:10059C001205DED0D0D0E022C0E0C0D0D2D4C2D37D
:1005AC00D295D29612065B78211205F678A0120528
:1005BC00F678111205F678201205F678091205F670
:1005CC0012063D78081205F6780C1205F6D0D0D03C
:1005DC00E02212060C227F08E8C2B120E704C2B068
:1005EC008002D2B0D2B123DFF022C0E0C0D0D2D48E
:1005FC00C2D3C297C2961205E2D296D0D0D0E022D6
:10060C00C0E0C0D0D2D4C2D3D297C2961205E2D2E7
:10061C0096D0D0D0E022C0E0C0D0D2D4C2D3EA442D
:10062C0040F81205F6E94480F81205F6D0D0D0E077
:10063C0022C0E0C0D0D2D4C2D379007A007B067A33
:10064C0054780012060CDAF9DBF5D0D0D0E0227D1C
:0C065C000A7EFF7FFFDFFEDEFADDF622E3
:00000001FF
