:100000007581D002000612011712012A12028C1209
:0E00100000EC12018412023812020380EF226B
:10001E00E5207003F4F52054B8A2D0E52033F52086
:10002E0022E5217009E5227005F4F521F52254D060
:10003E00A2D0E52130E301B333F521F5F0E522330B
:10004E00F522C5F022C0E0C0D0D2D4C2D3D295D210
:10005E009612010A78211200A578C21200A5781115
:10006E001200A578201200A578091200A51200EC46
:10007E0078081200A5780C1200A5D0D0D0E022127C
:10008E0000BB227F08E8C2B120E704C2B08002D2D2
:10009E00B0D2B123DFF022C0E0C0D0D2D4C2D3C2DE
:1000AE0097C296120091D296D0D0D0E022C0E0C076
:1000BE00D0D2D4C2D3D297C296120091D296D0D0BB
:1000CE00D0E022C0E0C0D0D2D4C2D3EA4440F8126D
:1000DE0000A5E94480F81200A5D0D0D0E022C0E0FF
:1000EE00C0D0D2D4C2D379007A007B067A5478007D
:1000FE001200BBDAF9DBF5D0D0D0E0227D0A7EFF0C
:10010E007FFFDFFEDEFADDF622790978A0760108A0
:10011E00D9FB790978B8760108D9FB22785076098F
:10012E0078517654785276307855760212001E78D1
:10013E00A0F608760108760112001E78B8F6087649
:10014E0002087601785376007854760122C0E0E5F5
:10015E0083C0E0E582C0E07D007B08E0FCED234C2F
:10016E00FD75F0541201CDDBF28DF0D0E0F582D0AA
:10017E00E0F583D0E022C0D0C0E0D2D4D2D31200BA
:10018E00EC9000007E067A0079007F5412015BA885
:10019E00F0E98AF01201DE88F01201F10975F00122
:1001AE001201CDDFE70A75F0FC1201CD75F0FC12DD
:1001BE0001CD75F0541201CDDECED0E0D0D022C0EC
:1001CE00E0E58225F0F582E5833400F583D0E02268
:1001DE00C0E0C0D0D2D4C2D3F9AAF01200D1D0D090
:1001EE00D0E022C0E0C0D0D2D4C2D3A8F012008D8D
:1001FE00D0D0D0E0227855E6FBEBB40101D3401706
:10020E00EB249FF8EB24A0F9E6F7EB24B7F8EB24E8
:10021E00B8F9E6F71B80E27853E678A22678A1F6C5
:10022E007854E678BA2678B9F622309211E4F5546D
:10023E00E553640160057553FF80037553013093D8
:10024E0013E4F554B4FF05E553F4600575530180CE
:10025E00037553FF209113E4F554B4FF05E554F4F0
:10026E00600075540180037554FF209010E4F5531F
:10027E00E554640160047554FF22755401227D001B
:10028E00EDB4300050297E00EEB45400501EED75D2
:10029E00F054A42400F582E5F03400F583EE2582B7
:1002AE00F582E43583F583E4F00E80DC0D80D17C9D
:1002BE000174092401F8E433AB00F5F0B2F7748051
:1002CE00B5F004ECB503004003020365EC24A0F87E
:1002DE00E625E0F556EC24B8F8E625E0FBF557E503
:1002EE005675F054A42400F582E5F03400F583EB46
:1002FE002582F582E43583F5837401F0E55675F0B9
:10030E0054A42454F582E5F03400F583EB2582F5F0
:10031E0082E43583F5837401F0E55675F054A42418
:10032E0001F582E5F03400F583EB2582F582E435A4
:10033E0083F5837401F0E55675F054A42455F582C7
:10034E00E5F03400F583EB2582F582E43583F58301
:08035E007401F00C0202BF2241
:00000001FF
