:100000007581800200061200531203981203AB128E
:0E001000053F1205C51204E51203DE80F22240
:10001E00E5207003F4F52054B8A2D0E52033F52086
:10002E0022E5217009E5227005F4F521F52254D060
:10003E00A2D0E52130E301B333F521F5F0E522330B
:10004E00F522C5F022C0E0C0D0D2D4C2D3D295D210
:10005E009612010A78211200A578A01200A5781137
:10006E001200A578201200A578091200A51200EC46
:10007E0078081200A5780C1200A5D0D0D0E022127C
:10008E0000BB227F08E8C2B120E704C2B08002D2D2
:10009E00B0D2B123DFF022C0E0C0D0D2D4C2D3C2DE
:1000AE0097C296120091D296D0D0D0E022C0E0C076
:1000BE00D0D2D4C2D3D297C296120091D296D0D0BB
:1000CE00D0E022C0E0C0D0D2D4C2D3EA4440F8126D
:1000DE0000A5E94480F81200A5D0D0D0E022C0E0FF
:1000EE00C0D0D2D4C2D379007A007B067A5478007D
:1000FE001200BBDAF9DBF5D0D0D0E0227D0A7EFF0C
:10010E007FFFDFFEDEFADDF622F888F890F88090A9
:10011E00C8B888A8503820F838A848F8A8D808D801
:10012E0081F8A8F83828F8C0D0D2D4C2D3E5287503
:10013E00F006A475F00A84FAE5F0F9E52875F00AE0
:10014E0084FFE5F029F975F00A842AFAE5F0F9EF53
:10015E003400FFE52875F005A42A75F00A84FBE546
:10016E00F0FAEF75F00A84FFE5F02AFA75F00A84CA
:10017E002BFBE5F0FAEF3400FFE52875F002A42B17
:10018E0075F00A84FCE5F0FBEF75F00A84FFE5F0EC
:10019E002BFB75F00A842CFCE5F0FBEF3400FFE935
:1001AE00C0E0EAC0E0EBC0E0ECC0E0D2D4C2D39035
:1001BE0001177B00D0E079207A341200D175F0035C
:1001CE00A4FC93F812008D0CEC93F812008D0CEC3D
:1001DE0093F812008DD0E079257A341200D175F0A3
:1001EE0003A4FC93F812008D0CEC93F812008D0C06
:1001FE00EC93F812008DD0E0792A7A341200D17582
:10020E00F003A4FC93F812008D0CEC93F812008D01
:10021E000CEC93F812008DD0E0792F7A341200D1C5
:10022E0075F003A4FC93F812008D0CEC93F81200F9
:10023E008D0CEC93F812008DD0D022C0D0D2D4C247
:10024E00D31200EC791B7A011200D178FF12008DC7
:10025E00788112008D788112008D789112008D7840
:10026E009112008D78F112008D780012008D7800B9
:10027E0012008D78FF12008D781112008D781112F8
:10028E00008D781112008D781112008D78FF1200FA
:10029E008D780012008D780012008D78FF12008D7F
:1002AE00780312008D781C12008D781C12008D7848
:1002BE000312008D78FF12008D780012008D7800E9
:1002CE0012008D78FF12008D789112008D789112A8
:1002DE00008D789112008D788112008D7881120038
:1002EE008D791B7A031200D178FF12008D7881125E
:1002FE00008D788112008D788112008D7881120028
:10030E008D78FF12008D780012008D780012008D0E
:10031E00780712008D783812008D78C012008D7813
:10032E00C012008D783812008D780712008D78007B
:10033E0012008D780012008D78FF12008D789112C8
:10034E00008D789112008D789112008D78811200B7
:10035E008D788112008D780012008D780012008D3C
:10036E0078FF12008D780912008D781912008D78A1
:10037E002912008D784912008D788612008D120197
:10038E00351204E502038FD0D0227920783876001A
:10039E0008D9FB79207850760008D9FB22A8207660
:1003AE000078327602740375F05484E5F07838F6EE
:1003BE00087603087603740875F03084E5F07850FB
:1003CE00F6087606087605783076007831760122C2
:1003DE0012049A500B782876A078287600120249DB
:1003EE007800E53078380826FDAE388EF0B5F06727
:1003FE00E53178500826FFAE508EF0B5F0597832C0
:0E040E00E6FBEBB40001D34017EB2437F8EB0C
:10041C002438F9E6F7EB244FF8EB2450F9E6F71BF8
:10042C0080E27830E6783A267839F67831E67852F8
:10043C00267851F67838EDF67850EFF612001E75E6
:10044C00F01484E5F07838F612001E75F01484E58B
:10045C00F07850F67832E604F67832E6FBEBB4012D
:10046C0001D34017EB2437F8EB2438F9E6F7EB24EB
:10047C004FF8EB2450F9E6F71B80E27830E6783A37
:10048C00267839F67831E67852267851F622C3C2AE
:10049C0035E532B42002D2357839E6B45401D35064
:1004AC00097851E6B43001D34002D235753602E5F5
:1004BC0036B532005020E5362438F886F07839E627
:1004CC00B5F00FE5362450F987F07851E6B5F00217
:1004DC00D235053680D9A23522209211E4F531E5CA
:1004EC0030640160057530FF800375300120931373
:1004FC00E4F531B4FF05E530F46005753001800397
:10050C007530FF209013E4F530B4FF05E531F4604D
:10051C000575310180037531FF209110E4F530E54C
:10052C0031640160047531FF22753101209403029E
:10053C000006227D00EDB4300050297E00EEB4544C
:10054C0000501EED75F054A42400F582E5F0340043
:10055C00F583EE2582F582E43583F583E4F00E8095
:10056C00DC0D80D1753600E536B53200504AE536E3
:10057C002438F8E625E0F533E5362450F8E625E096
:10058C00F534753700753500E535253475F054A410
:10059C00F58285F083E53725332582F582E58334B2
:1005AC0000F5837401F00535E535B402DB0537E55C
:1005BC0037B402D1053680AF22C0D0C0E0D2D4D23D
:1005CC00D31200EC900000740075F0001206437E0C
:1005DC00067F54120609120656A3DFF775F0FC12BB
:1005EC00063275F0FC12063275F054120632DEE15A
:1005FC00740275F000120643D0E0D0D022C0E0E5C2
:10060C0083C0E0E582C0E07D007B08E0FCED4C039C
:10061C00FD75F054120632DBF28DF0D0E0F582D08D
:10062C00E0F583D0E022C0E0E58225F0F582E58399
:10063C003400F583D0E022C0E0C0D0D2D4C2D3F9CC
:10064C00AAF01200D1D0D0D0E022C0E0C0D0D2D4D9
:0C065C00C2D3A8F012008DD0D0D0E02254
:00000001FF
