:100000007581D002000612029B1200531200661284
:0E001000016F1201F512011B12009780F222FF
:10001E00E5207003F4F52054B8A2D0E52033F52086
:10002E0022E5217009E5227005F4F521F52254D060
:10003E00A2D0E52130E301B333F521F5F0E522330B
:10004E00F522C5F022790978A0760008D9FB790946
:10005E0078B8760008D9FB22785076097851765414
:10006E00785276307855760212001E78A0F6087611
:10007E000008760112001E78B8F6087600087601A0
:10008E007853760078547601221200D45003120071
:10009E00067855E6FBEBB40101D34017EB249FF82D
:1000AE00EB24A0F9E6F7EB24B7F8EB24B8F9E6F762
:1000BE001B80E27853E678A22678A1F67854E6788B
:1000CE00BA2678B9F622C3C258E555B40902D258F9
:1000DE00E5A1B45401D35008E5B9B43001D34002C0
:1000EE00D258755902E559B55500501EE55924A050
:1000FE00F886F0E5A1B5F00EE55924B8F987F0E5DC
:10010E00B9B5F002D258055980DBA25822309211AF
:10011E00E4F554E553640160057553FF8003755390
:10012E0001309313E4F554B4FF05E553F4600575FF
:10013E00530180037553FF209113E4F554B4FF056A
:10014E00E554F4600075540180037554FF2090103F
:10015E00E4F553E554640160047554FF22755401AF
:10016E00227D00EDB4300050297E00EEB4540050D4
:10017E001EED75F054A42400F582E5F03400F583ED
:10018E00EE2582F582E43583F583E4F00E80DC0DF6
:10019E0080D1755900E559B55500504AE55924A04E
:1001AE00F8E625E0F556E55924B8F8E625E0F557CA
:1001BE00756000755800E558255775F054A4F58202
:1001CE0085F083E56025562582F582E5833400F5BA
:1001DE00837401F00558E558B402DB0560E560B4A0
:1001EE0002D1055980AF22C0D0C0E0D2D4D2D312F2
:1001FE000334900000740075F0001202737E067FC7
:10020E0054120239120288A3DFF775F0FC12026253
:10021E0075F0FC12026275F054120262DEE1740295
:10022E0075F000120273D0E0D0D022C0E0E583C09A
:10023E00E0E582C0E07D007B08E0FCED4C03FD753F
:10024E00F054120262DBF28DF0D0E0F582D0E0F5D0
:10025E0083D0E022C0E0E58225F0F582E58334000C
:10026E00F583D0E022C0E0C0D0D2D4C2D3F5008551
:10027E00F000120319D0D0D0E022C0E0C0D0D2D40A
:10028E00C2D385F0001202D5D0D0D0E022C0E0C09B
:10029E00D0D2D4C2D3D295D2961203527821120262
:1002AE00ED78C21202ED78111202ED78201202EDF5
:1002BE0078091202ED12033478081202ED780C124E
:1002CE0002EDD0D0D0E022120303227F08E8C2B1A3
:1002DE0020E704C2B08002D2B0D2B123DFF022C038
:1002EE00E0C0D0D2D4C2D3C297C2961202D9D2964F
:1002FE00D0D0D0E022C0E0C0D0D2D4C2D3D297C2E8
:10030E00961202D9D296D0D0D0E022C0E0C0D0D280
:10031E00D4C2D3EA4440F81202EDE94480F8120246
:10032E00EDD0D0D0E022C0E0C0D0D2D4C2D379007C
:10033E007A007B067A547800120303DAF9DBF5D0E3
:10034E00D0D0E0227D0A7EFF7FFFDFFEDEFADDF6F3
:01035E00227C
:00000001FF
