:100000007581D002000612005312011712012A1244
:0E001000023812033B1201E412015B80F2225F
:10001E00E5207003F4F52054B8A2D0E52033F52086
:10002E0022E5217009E5227005F4F521F52254D060
:10003E00A2D0E52130E301B333F521F5F0E522330B
:10004E00F522C5F022C0E0C0D0D2D4C2D3D295D210
:10005E009612010A78211200A578C21200A5781115
:10006E001200A578201200A578091200A51200EC46
:10007E0078081200A5780C1200A5D0D0D0E022127C
:10008E0000BB227F08E8C2B120E704C2B08002D2D2
:10009E00B0D2B123DFF022C0E0C0D0D2D4C2D3C2DE
:1000AE0097C296120091D296D0D0D0E022C0E0C076
:1000BE00D0D2D4C2D3D297C296120091D296D0D0BB
:1000CE00D0E022C0E0C0D0D2D4C2D3EA4440F8126D
:1000DE0000A5E94480F81200A5D0D0D0E022C0E0FF
:1000EE00C0D0D2D4C2D379007A007B067A5478007D
:1000FE001200BBDAF9DBF5D0D0D0E0227D0A7EFF0C
:10010E007FFFDFFEDEFADDF622790278A0760108A7
:10011E00D9FB790278B8760108D9FB22785076029D
:10012E0078517654785276307855760212001E78D1
:10013E00A0F608760108760112001E78B8F6087649
:10014E0002087601785376007854760122120198CF
:10015E0050031200067855E6FBEBB40101D34017AD
:10016E00EB249FF8EB24A0F9E6F7EB24B7F8EB2489
:10017E00B8F9E6F71B80E27853E678A22678A1F666
:10018E007854E678BA2678B9F622C3C258E555B542
:10019E000202D258E5A1B45401D35008E5B9B430E7
:1001AE0001D34002D258755902E559B55500501E7B
:1001BE00E55924A0F886F0E5A1B5F00EE55924B86E
:1001CE00F987F0E5B9B5F002D258055980DBA2588F
:1001DE00E4337E00FF22309211E4F554E5536401BE
:1001EE0060057553FF8003755301309313E4F55486
:1001FE00B4FF05E553F4600575530180037553FF95
:10020E00209113E4F554B4FF05E554F460007554E1
:10021E000180037554FF209010E4F553E5546401FA
:10022E0060047554FF22755401227D00EDB4300038
:10023E0050297E00EEB45400501EED75F054A424E7
:10024E0000F582E5F03400F583EE2582F582E43583
:10025E0083F583E4F00E80DC0D80D17C01740224E2
:10026E0001F8E433AB00F5F0B2F77480B5F004ECAE
:10027E00B503004003020311EC24A0F8E625E0F5D7
:10028E0056EC24B8F8E625E0FBF557E55675F05424
:10029E00A42400F582E5F03400F583EB2582F58287
:1002AE00E43583F5837401F0E55675F054A42454B7
:1002BE00F582E5F03400F583EB2582F582E4358393
:1002CE00F5837401F0E55675F054A42401F582E52A
:1002DE00F03400F583EB2582F582E43583F58374E3
:1002EE0001F0E55675F054A42455F582E5F034007E
:1002FE00F583EB2582F582E43583F5837401F00CEA
:10030E0002026B22C0E0E583C0E0E582C0E07D0022
:10031E007B08E0FCED234CFD75F054120384DBF2F8
:10032E008DF0D0E0F582D0E0F583D0E022C0D0C0D1
:10033E00E0D2D4D2D31200EC9000007E067A00797F
:10034E00007F54120312A8F0E98AF012039588F088
:10035E001203A80975F001120384DFE70A75F0FC99
:10036E0012038475F0FC12038475F054120384DEBC
:10037E00CED0E0D0D022C0E0E58225F0F582E58334
:10038E003400F583D0E022C0E0C0D0D2D4C2D3F97D
:10039E00AAF01200D1D0D0D0E022C0E0C0D0D2D48A
:0C03AE00C2D3A8F012008DD0D0D0E02205
:00000001FF
